:100000000C9404010C942E010C942E010C942E01DE
:100010000C942E010C942E010C942E010C942E01A4
:100020000C942E010C942E010C942E010C942E0194
:100030000C942E010C942E010C942E010C942E0184
:100040000C942E010C942E010C942E010C942E0174
:100050000C942E010C942E010C942E010C94420849
:100060000C942E010C94B6080C948C080C942E0160
:100070000C942E010C942E010C942E010C942E0144
:100080000C942E010C942E010C942E010C942E0134
:100090000C942E010C942E010C942E010C941E072E
:1000A0000C942E010C942E010C942E010C942E0114
:1000B0000C942E010C942E010C942E010C942E0104
:1000C0000C942E010C942E010C942E010C942E01F4
:1000D0000C942E010C942E010C942E010C942E01E4
:1000E0000C942E0100002100240027002A002D007E
:1000F0003000330001010000040107010A01000083
:100100002200250028002B002E00310034000201BF
:100110000000050108010B0100002000230026005B
:1001200029002C002F00320000010000030106010D
:10013000090105050505070508080808020202026D
:100140000A0A080804040404010101010101010173
:100150000303030303030303040707070C0C0C0C3E
:100160000C0C0C0C02020202060606060606060627
:100170000B0B0B0B0B0B0B0B0102102020080810B4
:100180002040102040800201020108040201010207
:1001900004081020408080402010080402018004E0
:1001A000020180402010080402010804020101023B
:1001B0000408102040800102040810204080000044
:1001C0000A0B02090C0D0E080703040100000000D1
:1001D000000000000000000000000000000000001F
:1001E00000000000000000000000121110000000DC
:1001F00000000000000000000000000000000000FF
:1002000000000000EC08700D11241FBECFEFD1E2FA
:10021000DEBFCDBF14E0A0E0B2E0EAE6F1E200E02C
:100220000BBF02C007900D92A230B107D9F725E0AD
:10023000A2E0B4E001C01D92AE3EB207E1F711E0CA
:10024000C3E0D1E004C02197FE010E94890EC230B4
:10025000D107C9F70E94A4090C94A8100C940000BF
:100260002091A804260F3327331F21323105ECF4E7
:100270002091CE04FC0190E080E0243069F082E01F
:100280000895A091A8042191AC014A575B4FA40F97
:10029000B52FB11D2C930196861798F38091A80471
:1002A000680F6093A80480E0089581E008950895A0
:1002B00008950895E0917D0480917C04E81730F45E
:1002C000F0E0E45AFB4F808190E008958FEF9FEFBC
:1002D000089590917D0480917C042FEF3FEF981753
:1002E00048F4E92FF0E0E45AFB4F208130E09F5FB3
:1002F00090937D04C901089580917C0490917D04C0
:10030000891B990B0895CF92DF92EF92FF920F9382
:100310001F93CF93DF937C01CB018A0120915B0473
:10032000222389F0EB016B01C40ED51ECC15DD052F
:1003300069F06991D701ED91FC910190F081E02D78
:10034000C7010995F3CF642F0E943001C801DF91E6
:10035000CF911F910F91FF90EF90DF90CF90089574
:10036000CF93DF931F92CDB7DEB7698320915B04F3
:100370002223F9F020917E04203258F021E030E071
:10038000FC013383228390E080E00F90DF91CF91D6
:10039000089580917F04E82FF0E0E55CFB4F9981A0
:1003A00090838F5F80937F0480937E0481E090E050
:1003B000ECCF61E0CE0101960E943001F7CF815071
:1003C000823108F058C0E82FF0E0E751FE4F0C945E
:1003D000890E09020D02FB01010205023B02100217
:1003E00016021A022002240228022E0232023B02C6
:1003F00036023C024002809180008F77809380001B
:100400000895809180008F7DF9CF80918000877F53
:10041000F5CF84B58F7784BD089584B58F7DFBCFEC
:100420008091B0008F778093B00008958091B000E4
:100430008F7DF9CF809190008F7780939000089501
:10044000809190008F7DF9CF80919000877FF5CFCC
:100450008091A0008F778093A00008958091A000E4
:100460008F7DF9CF8091A000877FF5CF809120010B
:100470008F77809320010895809120018F7DF9CF9F
:1004800080912001877FF5CFCF93DF93E1EFF1E0FB
:100490008491EBEAF1E0D491E5E6F1E0C491CC235C
:1004A000A1F081110E94DF01EC2FF0E0EE0FFF1FA1
:1004B000E85EFE4FA591B491EC91ED2381E090E0D0
:1004C00009F480E0DF91CF91089580E090E0FACFC9
:1004D0001F93CF93DF93282F30E0F901E254FE4FB2
:1004E0008491F901E858FE4FD491F901EE5CFE4F7A
:1004F000C491CC23A9F0162F81110E94DF01EC2FAB
:10050000F0E0EE0FFF1FE250FF4FA591B4918FB7BF
:10051000F894EC91111108C0D095DE23DC938FBFC5
:10052000DF91CF911F910895DE2BF8CF1092CE046A
:1005300081E08093D0041092CF0461E084E10E94B6
:10054000680261E085E10E946802E9EBF0E08081E9
:100550008E7F808380818D7F808388E48093B80044
:1005600085E48093BC000895CF93DF9391E090934E
:1005700085048823B9F0C091B800D091BA00809169
:10058000BC008A7B8093BC0060E084E10E9468022A
:1005900060E085E10E9468020E949602D093BA0052
:1005A000C093B800DF91CF910895CF93DF9390E08F
:1005B000FC01E858FE4F24918E5C9E4FFC01849113
:1005C0008823D1F090E0880F991FFC01EC51FF4F78
:1005D000A591B491FC01E250FF4FC591D4916230D6
:1005E00071F49FB7F8943C91822F809583238C936C
:1005F000E8812E2B28839FBFDF91CF9108958FB77D
:10060000F894EC912E2B2C938FBFF6CF3FB7F89434
:100610008091370490913804A0913904B0913A0444
:1006200026B5A89B05C02F3F19F00196A11DB11D4D
:100630003FBFBA2FA92F982F8827BC01CD01620F89
:10064000711D811D911D42E0660F771F881F991F44
:100650004A95D1F708958F929F92AF92BF92CF9211
:10066000DF92EF92FF924B015C010E9406036B0147
:100670007C010E9406036C197D098E099F09683E62
:10068000734081059105A8F321E0821A9108A10821
:10069000B10888EEC80E83E0D81EE11CF11C81145D
:1006A0009104A104B10429F7FF90EF90DF90CF905F
:1006B000BF90AF909F908F900895DB0114964D915D
:1006C0005C9115976D917C91DC01ED91FC9102801C
:1006D000F381E02D0994AF92BF92CF92DF92EF9217
:1006E000FF920F931F93CF93DF936C017B018B01DC
:1006F000040F151FEB015E01AE18BF08C017D1072C
:1007000059F06991D601ED91FC910190F081E02DB5
:10071000C6010995892B79F7C501DF91CF911F910A
:100720000F91FF90EF90DF90CF90BF90AF90089522
:10073000FC01538D448D252F30E0842F90E0821BE7
:10074000930B541710F0CF96089501970895FC016C
:10075000918D828D981761F0A28DAE0FBF2FB11DC4
:100760005D968C91928D9F5F9F73928F90E008951C
:100770008FEF9FEF0895FC01918D828D981731F0D6
:10078000828DE80FF11D858D90E008958FEF9FEF2A
:100790000895FC01918D228D892F90E0805C9F4F00
:1007A000821B91098F739927089580E095E00E943C
:1007B000C90321E0892B09F420E0822F0895FC0170
:1007C000A48DA80FB92FB11DA35ABF4F2C91848DB2
:1007D00090E001968F739927848FA689B7892C930F
:1007E000A089B1898C91837080648C93938D848D62
:1007F000981306C00288F389E02D80818F7D808365
:100800000895EF92FF920F931F93CF93DF93EC0124
:1008100081E0888F9B8D8C8D98131AC0E889F989A7
:10082000808185FF15C09FB7F894EE89FF896083AA
:10083000E889F98980818370806480839FBF81E02B
:1008400090E0DF91CF911F910F91FF90EF9008956D
:10085000F62E0B8D10E00F5F1F4F0F731127E02E48
:100860008C8D8E110CC00FB607FCFACFE889F98980
:10087000808185FFF5CFCE010E94DF03F1CFEB8DA4
:10088000EC0FFD2FF11DE35AFF4FF0829FB7F89454
:100890000B8FEA89FB8980818062CFCFCF93DF9372
:1008A000EC01888D8823B9F0AA89BB89E889F98988
:1008B0008C9185FD03C0808186FD0DC00FB607FCBD
:1008C000F7CF8C9185FFF2CF808185FFEDCFCE01F0
:1008D0000E94DF03E9CFDF91CF91089580E090E09F
:1008E000892B29F00E94D50381110E94000080E02D
:1008F00090E0892B49F080E090E0892B29F00E945C
:10090000000081110E94000080E090E0892B49F0F6
:1009100080E090E0892B29F00E94000081110E9464
:10092000000080E090E0892B49F080E090E0892B86
:1009300029F00E94000081110C9400000895CF92CC
:10094000DF92EF92FF920F931F93CF93DF93FC01FF
:10095000C48121E020935B04C093020410927F04C1
:1009600010927E048485682B84EF94E00E94B0018D
:10097000D0917E04D13208F092C00E9406036B0130
:100980007C018091CE04811165C082E08093CE0409
:1009900081E08093D0048FEF8093CD041092F20415
:1009A000D093F104ABE3B4E0E1EDF4E080E0D813E0
:1009B00085C01092F3048091F304CC0FC82BC09330
:1009C000F3048091CF04813009F07CC01092CF04F1
:1009D0000E9406036B017C018091F3048093BB00AD
:1009E0008091810490918204A0918304B091840449
:1009F000892B8A2B8B2B99F00E940603009181048E
:100A00001091820420918304309184046C197D0933
:100A10008E099F090617170728073907E0F180910B
:100A2000BC0083FDD9CF85EC8093BC000E940603F7
:100A30006B017C018091CE04823009F445C0809125
:100A4000CD048F3F61F18091CD04803241F18091DE
:100A5000CD0425C08091810490918204A0918304EB
:100A6000B0918404892B8A2B8B2B09F48ACF0E94A6
:100A70000603009181041091820420918304309137
:100A800084046C197D098E099F090617170728072A
:100A9000390708F076CF809180040E94B40210924A
:100AA0007F0410927E0410925B04DF91CF911F911E
:100AB0000F91FF90EF90DF90CF9008959D919193CB
:100AC0008F5F75CF85EEB0CF8091810490918204C5
:100AD000A0918304B0918404892B8A2B8B2B09F479
:100AE000A9CF0E94060300918104109182042091F5
:100AF0008304309184046C197D098E099F090617BF
:100B000017072807390708F095CFC5CF089590E05B
:100B100080E008950F931F93CF938C01C62F0E94FE
:100B20009F046C2F6460C8010E949F046C2F6B7F30
:100B3000C8010E949F0483EC90E00197F1F7CF91E8
:100B40001F910F9108950F931F93CF93DF938C0103
:100B5000D62FC42F607F642B0E948A0580E1D89F26
:100B6000B00111246C2BC801DF91CF911F910F911F
:100B70000C948A05CF93DF93CDB7DEB728970FB6D5
:100B8000F894DEBF0FBECDBF98E0EDE0F2E0DE01ED
:100B9000119601900D929A95E1F79091E5059817BD
:100BA00008F48FEF90E0880F991F21E030E02C0FC0
:100BB0003D1F820F931FFC016081606840E08DED56
:100BC00095E028960FB6F894DEBF0FBECDBFDF913B
:100BD000CF910C94A30540E061E08DED95E00E947B
:100BE000A3058BE39FE10197F1F78091E605882348
:100BF00019F080E00C94BA05089541E00E94A30525
:100C000081E090E0089585ED8093BC00809181049F
:100C100090918204A0918304B09184040796A11D51
:100C2000B11D23E0B695A795979587952A95D1F79D
:100C30002091BC0024FD03C01092CE040895409181
:100C40008104509182046091830470918404452B47
:100C5000462B472B69F30097A105B10541F02AE225
:100C60002A95F1F700C00197A109B109E1CF809160
:100C700080040C94B402FB0101900020E9F7319745
:100C8000AF01461B570BDC01ED91FC910280F38113
:100C9000E02D09948F929F92AF92BF920F931F9372
:100CA000CF93DF93CDB7DEB7A1970FB6F894DEBF31
:100CB0000FBECDBF19A2423008F44AE08E010F5D8D
:100CC0001F4F842E912CB12CA12CA50194010E94C0
:100CD000580EE62FB901CA01EA3004F5E05DD801EB
:100CE000EE938D01232B242B252B79F790E080E0C8
:100CF000109729F0BD0180E095E00E943B06A19687
:100D00000FB6F894DEBF0FBECDBFDF91CF911F911C
:100D10000F91BF90AF909F908F900895E95CDFCFC7
:100D2000CF92DF92EF92FF92CF93DF936C01990FF6
:100D3000EE08FF08F7FE19C06DE280E095E00E9422
:100D40000104EC0166277727CB016C197D098E0918
:100D50009F094AE00E944A068C0F9D1FDF91CF91A8
:100D6000FF90EF90DF90CF9008954AE0C701B60161
:100D7000DF91CF91FF90EF90DF90CF900C944A06D7
:100D8000CF93DF93BC0180E095E00E943B06EC012D
:100D90006BE472E080E095E00E943B068C0F9D1FA3
:100DA000DF91CF9108950C943B06EF92FF920F9341
:100DB0001F93CF93DF93EC017B01198218821B8272
:100DC0001A821D821C82FB0101900020E9F73197F5
:100DD0008F01061B170BB8016F5F7F4F90E080E01B
:100DE0000E94B70F0097B9F0998388831B830A8309
:100DF0002C813D81232B11F4FC0110821D830C8377
:100E0000B70188819981DF91CF911F910F91FF9058
:100E1000EF900C94A11088819981009711F00E94A5
:100E20002E0F198218821D821C821B821A82DF916A
:100E3000CF911F910F91FF90EF9008951F920F9205
:100E40000FB60F9211240BB60F922F933F934F932F
:100E50005F936F937F938F939F93AF93BF93EF9322
:100E6000FF938091B900887F803609F44DC008F067
:100E700040C0883209F4A9C028F5803109F49DC02A
:100E8000C8F4882309F4FBC0883009F496C0FF91A8
:100E9000EF91BF91AF919F918F917F916F915F91F2
:100EA0004F913F912F910F900BBE0F900FBE0F905F
:100EB0001F901895883109F488C0803241F78093DB
:100EC000CD0414C0803409F49DC040F48033B9F3DC
:100ED0008833E9F68093CD0485ECB0C0803509F401
:100EE00085C0883509F496C0883489F60E940306C7
:100EF000CECF883909F48CC038F5883729F050F402
:100F0000883611F0803719F683E08093CE04109272
:100F1000CC0457C0883809F47BC0803919F0803878
:100F200009F0B5CF8091CC04803208F071C0E09117
:100F3000CC0481E08E0F8093CC048091BB00F0E064
:100F4000E455FB4F80833DC0803B39F0E0F4803AAC
:100F500009F479C0883A09F09ACF84E08093CE04EE
:100F60001092A9041092A804E091A604F091A7049D
:100F700009958091A80481110FC081E08093A80495
:100F80001092860409C0803C09F4A6CF883C09F47D
:100F9000A3CF883B09F07BCFE091A90481E08E0FBD
:100FA0008093A904F0E0EA57FB4F80818093BB0057
:100FB0009091A9048091A80429C08091F3048093A2
:100FC000BB0085EC8093BC0062CF9091F2048091CD
:100FD000F104981758F5E091F20481E08E0F8093A8
:100FE000F204F0E0EF52FB4F8081E9CFE091F20490
:100FF00081E08E0F8093F2048091BB00F0E0EF520D
:10100000FB4F80839091F2048091F1049817C8F20D
:1010100085E8D8CFE091F20481E08E0F8093F2044E
:101020008091BB00F0E0EF52FB4F80838091D004B1
:1010300081115CCF81E08093CF0484EA8093BC006F
:101040001092CE0424CF85EC8093BC001092CE0485
:101050008091CC04803230F4E091CC04F0E0E4558F
:10106000FB4F10826091CC0470E0E091AA04F091F3
:10107000AB048CEA94E009951092CC0408CF10924E
:10108000CD0434CF1F920F920FB60F9211242F93DD
:101090003F938F939F93AF93BF938091330490912D
:1010A0003404A0913504B09136043091320423E029
:1010B000230F2D3758F50196A11DB11D2093320441
:1010C0008093330490933404A0933504B093360492
:1010D0008091370490913804A0913904B0913A047A
:1010E0000196A11DB11D8093370490933804A093FD
:1010F0003904B0933A04BF91AF919F918F913F9182
:101100002F910F900FBE0F901F90189526E8230F78
:101110000296A11DB11DD2CF1F920F920FB60F9252
:1011200011240BB60F922F933F934F935F936F93BE
:101130007F938F939F93AF93BF93EF93FF9380E041
:1011400095E00E94DF03FF91EF91BF91AF919F91D6
:101150008F917F916F915F914F913F912F910F9060
:101160000BBE0F900FBE0F901F9018951F920F92FD
:101170000FB60F9211240BB60F922F938F939F935C
:10118000EF93FF93E0911005F09111058081E091BC
:101190001605F091170582FD1DC0908180911905FB
:1011A0008F5F8F7320911A05821741F0E091190526
:1011B000F0E0E050FB4F958F80931905FF91EF9180
:1011C0009F918F912F910F900BBE0F900FBE0F909C
:1011D0001F9018958081F2CFE4EFF4E01382128221
:1011E00088EE93E0A0E0B0E084839583A683B78384
:1011F0002FE132E031832083E0E0F5E013821282B8
:1012000084839583A683B78381E392E0918380836F
:1012100085EC90E09587848784EC90E097878687BB
:1012200080EC90E0918B808B81EC90E0938B828BB3
:1012300082EC90E0958B848B86EC90E0978B868B8C
:10124000118E128E138E148EEDEDF5E01382128244
:1012500083E492E091838083118687E2848380E136
:10126000828782E083871486E3EDF5E086E190E0F3
:101270009183808387E190E09383828388E190E08B
:101280009583848389E190E0978386838AE190E067
:1012900091878087E9ECF5E08BE190E09183808392
:1012A0008CE190E0938382838DE190E09583848349
:1012B0008EE190E0978386838FE190E0918780872D
:1012C000EFEBF5E080E290E09183808381E290E0B3
:1012D0009383828382E290E09583848383E290E02B
:1012E0009783868384E290E091878087E5EBF5E041
:1012F00085E290E09183808386E290E0938382830D
:1013000087E290E09583848388E290E097838683E8
:1013100089E290E0918780876EE472E08DE995E044
:101320000E94D50666E572E083EA95E00E94D50644
:101330006CE572E089EA95E00E94D50662E672E00B
:101340008FEA95E00C94D506CF93DF9300D000D0C0
:10135000CDB7DEB7789484B5826084BD84B58160F2
:1013600084BD85B5826085BD85B5816085BD809170
:101370006E00816080936E001092810080918100E8
:1013800082608093810080918100816080938100E0
:10139000809180008160809380008091B1008460A2
:1013A0008093B1008091B00081608093B000809103
:1013B0009100826080939100809191008160809380
:1013C0009100809190008160809390008091A100B5
:1013D00082608093A1008091A10081608093A10030
:1013E0008091A00081608093A000809121018260A3
:1013F000809321018091210181608093210180915E
:10140000200181608093200180917A008460809324
:101410007A0080917A00826080937A0080917A00CD
:10142000816080937A0080917A00806880937A004E
:101430001092C100E0911005F091110582E08083C7
:10144000E0910C05F0910D051082E0910E05F091F0
:101450000F058FEC808310921805E0911405F09130
:10146000150586E08083E0911205F09113058081D7
:1014700080618083E0911205F0911305808188607E
:101480008083E0911205F09113058081806880834C
:10149000E0911205F091130580818F7D808362E0D9
:1014A00083E30E94D50205EB15E08FEBE82E85E083
:1014B000F82E99ECC92E95E0D92E23ED35E03A832C
:1014C0002983E981FA8180813296FA83E98361E098
:1014D0000E94D502F6018081F2E0CF0ED11C61E0BE
:1014E0000E94D502F7018081F2E0EF0EF11C61E06D
:1014F0000E94D502F80180810E5F1F4F61E00E94BB
:10150000D50229813A812D5D3540D9F661E082E32B
:101510000E94D50280917B00877F80937B0080E4CE
:1015200080937C0080917A00806480937A0080911F
:101530007A0086FDFCCF6091780070917900072ECB
:10154000000C880B990B611571058105910511F04F
:101550000E941D0E10927D0410927C0410927F0454
:1015600010927E040E94960287E591E09093A70472
:101570008093A60488E591E09093AB048093AA043D
:101580001092E2058091E805823018F098E090937F
:10159000E2058093E50562E370E080E090E00E9460
:1015A0002B036091E9058DED95E00E949F0468EEA4
:1015B00073E080E090E00E942B0360E38DED95E006
:1015C0000E948A058BE496E40197F1F760E38DEDC4
:1015D00095E00E948A05EBE4F6E43197F1F760E3C9
:1015E0008DED95E00E948A0583E592E00197F1F781
:1015F00060E28DED95E00E948A056091E2056062EF
:1016000040E08DED95E00E94A30584E08093E30522
:1016100040E06CE08DED95E00E94A3050E94EB0593
:1016200082E08093E40540E066E08DED95E00E9465
:10163000A30540E062E08DED95E00E94A3058BE3F9
:101640009FE10197F1F788E08093E90560E08DED77
:1016500095E00E949F0480E00E94BA0569E672E06E
:101660008DED95E00E94D30681E00E94BA0569E7FE
:1016700072E08DED95E00E94D30664E670E080E0B4
:1016800090E00E942B030E94440221E0892B09F480
:1016900020E02093020260ED77E080E090E00E947D
:1016A0002B030E94EB0581E00E94BA0569E872E015
:1016B0008DED95E00E94D30689E692E00E94C00677
:1016C00083E992E00E94C0068FEB92E00E94C00680
:1016D0005524539406E0402E0E944402F1E0F98321
:1016E000009709F4198220910202222371F0892BBC
:1016F00061F462E370E080E090E00E942B030E94BE
:101700004402892B11F45092310429812093020262
:1017100080E095E00E94C9031816190634F480E0B1
:1017200095E00E94A70350923104809131048823F0
:1017300009F4B4C0109231048EEE92E00E94C0060B
:101740000E94EB0580E00E94BA056DE073E08DED2C
:1017500095E00E94D30661E082E30E94680283E084
:1017600094E09A838983ABE2AA2EA4E0BA2EBBE16F
:10177000CB2EB4E0DB2E1BE0E12E14E0F12E0DE9C0
:1017800015E0E981FA8111921192FA83E983F5015A
:1017900011925F012FB7F894809133049091340433
:1017A000A0913504B09136042FBFF6018193919337
:1017B000A193B1936F010E94CE0D24EA36E040E080
:1017C00050E00E94260E6C597F4F8F4F9F4FF701BC
:1017D00061937193819391937F01B80180E095E0CB
:1017E0000E945D0364E173E080E095E00E94D3060F
:1017F000F701349760817181828193814AE00E9470
:101800004A0683E293E00E94C0060A5F1F4F2981C7
:101810003A812B50344009F0B4CF05EB15E0EFEBE3
:10182000EE2EE5E0FE2EF9ECCF2EF5E0DF2EE3ED17
:10183000F5E0FA83E983E981FA8180813296FA83BF
:10184000E98360E00E946802F6018081F2E0CF0E39
:10185000D11C60E00E946802F7018081F2E0EF0E87
:10186000F11C60E00E946802F80180810E5F1F4F4A
:1018700060E00E94680229813A812D5D3540D9F6E9
:101880005092300410922F04EFEFFFEFF09301021B
:10189000E093000286E293E00E94C006809130044B
:1018A000882309F40EC180912F0481110AC18FB7DA
:1018B000F8948090330490903404A0903504B09054
:1018C00036048FBF2BE234E03A83298303E014E02F
:1018D0006BE1E62E64E0F62E7BE0272E74E0372ED7
:1018E00039011C821B82F30181913F01811179C072
:1018F000F70180819181A281B381B501A401481BC8
:10190000590B6A0B7B0BF10180819181A281B3811C
:10191000481759076A077B0708F463C0F7018082FC
:101920009182A282B3828B819C810197039708F0F8
:10193000CBC0EB81FC81EE0FFF1FED5EFD4F808180
:101940009181F80120813181220F331F820F931F73
:1019500061E0FC0180810E9468022B813C81429EF3
:10196000C001439E900D1124FC01E356FA4F6F0114
:10197000BF0180E095E00E945D0367E473E080E0D2
:1019800095E00E94D306F8018081918101960E9422
:1019900090066DE473E080E095E00E94D30685E058
:1019A00090E00E9490068FE493E00E94C006F80148
:1019B00080819181019691838083059794F0F30152
:1019C0003197508263E573E080E095E00E94D30692
:1019D000B60180E095E00E945D0388E593E00E94F7
:1019E000C0062B813C812F5F3F4F3C832B830E5FD2
:1019F0001F4F34E0E30EF11C84E0280E311CEB8114
:101A0000FC81349709F06FCF80912F04811159C068
:101A100080910002909101021C821B82E981FA816F
:101A20002191FA83E983222309F451C08F3F98075B
:101A300009F04DC02B813C813093010220930002BC
:101A400050922F0460E082E30E9468020E94EB053E
:101A500080E00E94BA056DE673E08DED95E00E948E
:101A6000D30681E00E94BA05EB81FC814E9EC00145
:101A70004F9E900D11249C0123563A4F3A8329839F
:101A8000B9018DED95E00E945D0386E793E00E9429
:101A9000C00660E973E080E095E00E94D3066981AA
:101AA0007A8180E095E00E945D0389E993E00E94DD
:101AB000C00681EA93E00E94C00681ED93E00E9497
:101AC000C0060E946E0408CE83ED95E03ACFEB810C
:101AD000FC813196FC83EB83349709F09FCFF1CFE3
:101AE000CF93DF93C5EBD5E0269788819981009746
:101AF00011F00E942E0F85E0CD39D807A9F7DF91AC
:101B0000CF9108958F929F92AF92BF92CF92DF9222
:101B1000EF92FF92CF93DF93EC01688179818A8104
:101B20009B81611571058105910521F464E279EDD0
:101B30008BE597E02DE133EF41E050E00E94260E67
:101B400049015A019B01AC01A7EAB1E40E94450E8C
:101B50006B017C01ACEEB4EFA50194010E94530E21
:101B6000C60ED71EE81EF91EF7FE06C081E0C81A91
:101B7000D108E10880E8F80AC882D982EA82FB82AB
:101B8000C701B6019F77DF91CF91FF90EF90DF9073
:101B9000CF90BF90AF909F908F9008958F929F921B
:101BA000AF92BF92CF92DF92EF92FF9260910302C9
:101BB00070910402809105029091060261157105F1
:101BC0008105910521F464E279ED8BE597E02DE143
:101BD00033EF41E050E00E94260E49015A019B017B
:101BE000AC01A7EAB1E40E94450E6B017C01ACEEAA
:101BF000B4EFA50194010E94530EC60ED71EE81E35
:101C0000F91EF7FE06C081E0C81AD108E10880E895
:101C1000F80AC0920302D0920402E0920502F09208
:101C20000602C701B6019F77FF90EF90DF90CF903B
:101C3000BF90AF909F908F90089560930302709330
:101C4000040280930502909306020895052E97FBE7
:101C50001EF400940E943D0E57FD07D00E94580EBE
:101C600007FC03D04EF40C943D0E509540953095F2
:101C700021953F4F4F4F5F4F0895909580957095F8
:101C800061957F4F8F4F9F4F08950E947A0EA59FB9
:101C9000900DB49F900DA49F800D911D1124089567
:101CA000B7FF0C94450E0E94450E821B930B0895BE
:101CB000A1E21A2EAA1BBB1BFD010DC0AA1FBB1F50
:101CC000EE1FFF1FA217B307E407F50720F0A21BC2
:101CD000B30BE40BF50B661F771F881F991F1A942F
:101CE00069F760957095809590959B01AC01BD0159
:101CF000CF010895A29FB001B39FC001A39F700DB3
:101D0000811D1124911DB29F700D811D1124911D03
:101D10000895EE0FFF1F0024001C0BBE0790F691E4
:101D2000E02D09940F931F93CF93DF938230910599
:101D300010F482E090E0E091EC05F091ED0530E0E8
:101D400020E0B0E0A0E0309799F42115310509F4C6
:101D50004AC0281B390B24303105D8F58A819B8174
:101D60006115710589F1FB0193838283FE0111C026
:101D7000408151810281138148175907E0F04817CB
:101D8000590799F4109761F012960C9312971396D5
:101D90001C933296CF01DF91CF911F910F9108953F
:101DA0000093EC051093ED05F4CF2115310551F0AA
:101DB0004217530738F0A901DB019A01BD01DF0189
:101DC000F801C1CFEF01F9CF9093ED058093EC05B9
:101DD000CDCFFE01E20FF31F819391932250310981
:101DE00039832883D7CF2091EA053091EB05232B47
:101DF00041F42091090230910A023093EB052093BF
:101E0000EA0520910702309108022115310541F4BD
:101E10002DB73EB740910B0250910C02241B350B9D
:101E2000E091EA05F091EB05E217F307A0F42E1B11
:101E30003F0B2817390778F0AC014E5F5F4F24172E
:101E4000350748F04E0F5F1F5093EB054093EA05AE
:101E5000819391939FCFF0E0E0E09CCFCF93DF930D
:101E60000097E9F0FC01329713821282A091EC05F1
:101E7000B091ED05ED0130E020E01097A1F4208154
:101E80003181820F931F2091EA053091EB052817CD
:101E9000390709F061C0F093EB05E093EA05DF91A3
:101EA000CF910895EA01CE17DF07E8F54A815B81FB
:101EB0009E0141155105B1F7E901FB83EA83499180
:101EC0005991C40FD51FEC17FD0761F480819181F2
:101ED0000296840F951FE9019983888382819381FB
:101EE0009B838A83F0E0E0E012968D919C9113979A
:101EF0000097B9F52D913C911197CD010296820F73
:101F0000931F2091EA053091EB052817390739F620
:101F1000309751F51092ED051092EC05B093EB055A
:101F2000A093EA05BCCFD383C28340815181840F43
:101F3000951FC817D90761F44E5F5F4F888199815B
:101F4000480F591F518340838A819B8193838283E9
:101F50002115310509F0B0CFF093ED05E093EC05C4
:101F60009ECFFD01DC01C0CF13821282D7CF4F92EA
:101F70005F926F927F928F929F92AF92BF92CF9219
:101F8000DF92EF92FF920F931F93CF93DF938C0119
:101F9000009799F4CB01DF91CF911F910F91FF90A2
:101FA000EF90DF90CF90BF90AF909F908F907F90F9
:101FB0006F905F904F900C94920EFC01E60FF71F0C
:101FC0009C0122503109E217F30708F4AEC0D90191
:101FD000CD91DC911197C617D70720F1C530D105F7
:101FE00078F0CE0104978617970750F0C61BD70BE1
:101FF0002297C193D1936D937C93CF010E942E0FB2
:10200000C801DF91CF911F910F91FF90EF90DF906A
:10201000CF90BF90AF909F908F907F906F905F9088
:102020004F9008955B01AC1ABD0A4C018C0E9D1EA9
:10203000A091EC05B091ED05512C412CF12CE12C37
:10204000109731F58091EA059091EB058815990577
:1020500009F05CC04616570608F058C08091070288
:1020600090910802009741F48DB79EB740910B0202
:1020700050910C02841B950BE817F90708F055C026
:10208000F093EB05E093EA05F90171836083B8CF23
:102090008D919C91119712966C90129713967C904B
:1020A0001397A815B90559F56C0142E0C40ED11C6F
:1020B000CA14DB0420F1AC014A195B09DA0112965B
:1020C000159780F06282738251834083D9016D93AA
:1020D0007C93E114F10471F0D7011396FC93EE9315
:1020E00012978ECF22968C0F9D1FF90191838083CA
:1020F000F301EFCFF093ED05E093EC0581CF4816A7
:10210000590608F42C017D01D3019ACFCB010E941E
:10211000920E7C01009749F0AE01B8010E94981020
:10212000C8010E942E0F87016BCF10E000E068CF3E
:10213000FB01DC0102C001900D9241505040D8F7E4
:102140000895FB01DC0101900D920020E1F7089554
:1021500011E0C3E0D1E004C0FE010E94890E219687
:0A216000C430D107C9F7F894FFCF8F
:10216A00FFFF01010000000000EE058000000040B2
:10217A000014005400C905BF05B50500000000B0F1
:10218A00018301870559017C0169015A0100000098
:10219A000001046B0398034E04C903A703BB0300A1
:1021AA00000000FD056B03870586050D0A004345FF
:1021BA005256454E41004D4F445241005A4C5554D7
:1021CA0041005A454C454E4100446F737469687921
:1021DA0020612073617A6B790054726F636875208D
:1021EA0067616D62612078640050524950524156CD
:1021FA00454E005072657373207468652062757469
:10220A00746F6E206F6E2070696E20353120746F86
:10221A0020737461727420612072616365210028E1
:10222A00596F752063616E20616C736F20707265DF
:10223A00737320616E79206B657920696E2053650E
:10224A007269616C204D6F6E69746F7229000A3D64
:10225A003D3D205354415254494E47204E45572044
:10226A004C45442052414345203D3D3D0053544195
:10227A00525421002061727261792064656C61791F
:10228A003A20006D73005261636520737461727441
:10229A0065642120576174636820746865204C4521
:1022AA0044732E2E2E0A00204C454420002F002075
:1022BA004F4E003E3E3E200020415252415920439B
:1022CA004F4D504C45544521203C3C3C0056594802
:1022DA00455243453A000AF09F8F862052414345B2
:1022EA002046494E49534845442120F09F8F860095
:1022FA0057494E4E45523A200020415252415921E7
:10230A000050726573732074686520627574746F07
:10231A006E206F6E2070696E20353120746F2073C5
:10232A00746172742061206E657720726163652121
:10233A000028596F752063616E20616C736F20707D
:10234A007265737320616E79206B657920696E20DE
:10235A0053657269616C204D6F6E69746F72290AD8
:02236A00000071
:00000001FF
