:100000000C9404010C942E010C942E010C942E01DE
:100010000C942E010C942E010C942E010C942E01A4
:100020000C942E010C942E010C942E010C942E0194
:100030000C942E010C942E010C942E010C942E0184
:100040000C942E010C942E010C942E010C942E0174
:100050000C942E010C942E010C942E010C94290862
:100060000C942E010C949D080C9473080C942E0192
:100070000C942E010C942E010C942E010C942E0144
:100080000C942E010C942E010C942E010C942E0134
:100090000C942E010C942E010C942E010C94050747
:1000A0000C942E010C942E010C942E010C942E0114
:1000B0000C942E010C942E010C942E010C942E0104
:1000C0000C942E010C942E010C942E010C942E01F4
:1000D0000C942E010C942E010C942E010C942E01E4
:1000E0000C942E0100002100240027002A002D007E
:1000F0003000330001010000040107010A01000083
:100100002200250028002B002E00310034000201BF
:100110000000050108010B0100002000230026005B
:1001200029002C002F00320000010000030106010D
:10013000090105050505070508080808020202026D
:100140000A0A080804040404010101010101010173
:100150000303030303030303040707070C0C0C0C3E
:100160000C0C0C0C02020202060606060606060627
:100170000B0B0B0B0B0B0B0B0102102020080810B4
:100180002040102040800201020108040201010207
:1001900004081020408080402010080402018004E0
:1001A000020180402010080402010804020101023B
:1001B0000408102040800102040810204080000044
:1001C0000A0B02090C0D0E080703040100000000D1
:1001D000000000000000000000000000000000001F
:1001E00000000000000000000000121110000000DC
:1001F00000000000000000000000000000000000FF
:10020000000000001C09920D11241FBECFEFD1E2A7
:10021000DEBFCDBF14E0A0E0B2E0EEEFF1E200E01F
:100220000BBF02C007900D92A034B107D9F726E0AA
:10023000A0E4B4E001C01D92A730B207E1F711E0DD
:10024000C3E0D1E004C02197FE010E94BF0EC2307E
:10025000D107C9F70E947C090C94F2100C9400009D
:100260002091E904260F3327331F21323105ECF4A6
:1002700020910F05FC0190E080E0243069F082E0DD
:100280000895A091E9042191AC0149535B4FA40F5B
:10029000B52FB11D2C930196861798F38091E90430
:1002A000680F6093E90480E0089581E0089508955F
:1002B00008950895E091BE048091BD04E81730F4DC
:1002C000F0E0E356FB4F808190E008958FEF9FEFC1
:1002D00008959091BE048091BD042FEF3FEF9817D1
:1002E00048F4E92FF0E0E356FB4F208130E09F5FB8
:1002F0009093BE04C90108958091BD049091BE04FD
:10030000891B990B0895CF92DF92EF92FF920F9382
:100310001F93CF93DF937C01CB018A0120919C0432
:10032000222389F0EB016B01C40ED51ECC15DD052F
:1003300069F06991D701ED91FC910190F081E02D78
:10034000C7010995F3CF642F0E943001C801DF91E6
:10035000CF911F910F91FF90EF90DF90CF90089574
:10036000CF93DF931F92CDB7DEB7698320919C04B2
:100370002223F9F02091BF04203258F021E030E030
:10038000FC013383228390E080E00F90DF91CF91D6
:1003900008958091C004E82FF0E0E458FB4F998164
:1003A00090838F5F8093C0048093BF0481E090E0CE
:1003B000ECCF61E0CE0101960E943001F7CF815071
:1003C000823108F058C0E82FF0E0E751FE4F0C945E
:1003D000BF0E09020D02FB01010205023B021002E1
:1003E00016021A022002240228022E0232023B02C6
:1003F00036023C024002809180008F77809380001B
:100400000895809180008F7DF9CF80918000877F53
:10041000F5CF84B58F7784BD089584B58F7DFBCFEC
:100420008091B0008F778093B00008958091B000E4
:100430008F7DF9CF809190008F7780939000089501
:10044000809190008F7DF9CF80919000877FF5CFCC
:100450008091A0008F778093A00008958091A000E4
:100460008F7DF9CF8091A000877FF5CF809120010B
:100470008F77809320010895809120018F7DF9CF9F
:1004800080912001877FF5CFCF93DF93E1EFF1E0FB
:100490008491EBEAF1E0D491E5E6F1E0C491CC235C
:1004A000A1F081110E94DF01EC2FF0E0EE0FFF1FA1
:1004B000E85EFE4FA591B491EC91ED2381E090E0D0
:1004C00009F480E0DF91CF91089580E090E0FACFC9
:1004D0001F93CF93DF93282F30E0F901E254FE4FB2
:1004E0008491F901E858FE4FD491F901EE5CFE4F7A
:1004F000C491CC23A9F0162F81110E94DF01EC2FAB
:10050000F0E0EE0FFF1FE250FF4FA591B4918FB7BF
:10051000F894EC91111108C0D095DE23DC938FBFC5
:10052000DF91CF911F910895DE2BF8CF10920F0528
:1005300081E0809311051092100561E084E10E9432
:10054000680261E085E10E946802E9EBF0E08081E9
:100550008E7F808380818D7F808388E48093B80044
:1005600085E48093BC000895CF93DF9391E090934E
:10057000C6048823B9F0C091B800D091BA00809128
:10058000BC008A7B8093BC0060E084E10E9468022A
:1005900060E085E10E9468020E949602D093BA0052
:1005A000C093B800DF91CF910895CF93DF9390E08F
:1005B000FC01E858FE4F24918E5C9E4FFC01849113
:1005C0008823D1F090E0880F991FFC01EC51FF4F78
:1005D000A591B491FC01E250FF4FC591D4916230D6
:1005E00071F49FB7F8943C91822F809583238C936C
:1005F000E8812E2B28839FBFDF91CF9108958FB77D
:10060000F894EC912E2B2C938FBFF6CF3FB7F89434
:100610008091780490917904A0917A04B0917B0440
:1006200026B5A89B05C02F3F19F00196A11DB11D4D
:100630003FBFBA2FA92F982F8827BC01CD01620F89
:10064000711D811D911D42E0660F771F881F991F44
:100650004A95D1F708958F929F92AF92BF92CF9211
:10066000DF92EF92FF924B015C010E9406036B0147
:100670007C010E9406036C197D098E099F09683E62
:10068000734081059105A8F321E0821A9108A10821
:10069000B10888EEC80E83E0D81EE11CF11C81145D
:1006A0009104A104B10429F7FF90EF90DF90CF905F
:1006B000BF90AF909F908F900895DB0114964D915D
:1006C0005C9115976D917C91DC01ED91FC9102801C
:1006D000F381E02D0994AF92BF92CF92DF92EF9217
:1006E000FF920F931F93CF93DF936C017B018B01DC
:1006F000040F151FEB015E01AE18BF08C017D1072C
:1007000059F06991D601ED91FC910190F081E02DB5
:10071000C6010995892B79F7C501DF91CF911F910A
:100720000F91FF90EF90DF90CF90BF90AF90089522
:10073000FC01538D448D252F30E0842F90E0821BE7
:10074000930B541710F0CF96089501970895FC016C
:10075000918D828D981761F0A28DAE0FBF2FB11DC4
:100760005D968C91928D9F5F9F73928F90E008951C
:100770008FEF9FEF0895FC01918D828D981731F0D6
:10078000828DE80FF11D858D90E008958FEF9FEF2A
:100790000895FC01918D228D892F90E0805C9F4F00
:1007A000821B91098F739927089581E495E00E9437
:1007B000C90321E0892B09F420E0822F0895FC0170
:1007C000A48DA80FB92FB11DA35ABF4F2C91848DB2
:1007D00090E001968F739927848FA689B7892C930F
:1007E000A089B1898C91837080648C93938D848D62
:1007F000981306C00288F389E02D80818F7D808365
:100800000895EF92FF920F931F93CF93DF93EC0124
:1008100081E0888F9B8D8C8D98131AC0E889F989A7
:10082000808185FF15C09FB7F894EE89FF896083AA
:10083000E889F98980818370806480839FBF81E02B
:1008400090E0DF91CF911F910F91FF90EF9008956D
:10085000F62E0B8D10E00F5F1F4F0F731127E02E48
:100860008C8D8E110CC00FB607FCFACFE889F98980
:10087000808185FFF5CFCE010E94DF03F1CFEB8DA4
:10088000EC0FFD2FF11DE35AFF4FF0829FB7F89454
:100890000B8FEA89FB8980818062CFCFCF93DF9372
:1008A000EC01888D8823B9F0AA89BB89E889F98988
:1008B0008C9185FD03C0808186FD0DC00FB607FCBD
:1008C000F7CF8C9185FFF2CF808185FFEDCFCE01F0
:1008D0000E94DF03E9CFDF91CF91089580E090E09F
:1008E000892B29F00E94D50381110E94000080E02D
:1008F00090E0892B49F080E090E0892B29F00E945C
:10090000000081110E94000080E090E0892B49F0F6
:1009100080E090E0892B29F00E94000081110E9464
:10092000000080E090E0892B49F080E090E0892B86
:1009300029F00E94000081110C9400000895CF92CC
:10094000DF92EF92FF920F931F93CF93DF93FC01FF
:10095000C48121E020939C04C09340041092C00401
:100960001092BF048485682B85E395E00E94B00156
:10097000D091BF04D13208F092C00E9406036B01EF
:100980007C0180910F05811165C082E080930F0585
:1009900081E0809311058FEF80930E05109233054F
:1009A000D0933205ACE7B4E0E2E1F5E080E0D813A3
:1009B00085C01092340580913405CC0FC82BC093AC
:1009C000340580911005813009F07CC0109210052B
:1009D0000E9406036B017C01809134058093BB006B
:1009E0008091C2049091C304A091C404B091C50445
:1009F000892B8A2B8B2B99F00E9406030091C2044D
:100A00001091C3042091C4043091C5046C197D0970
:100A10008E099F090617170728073907E0F180910B
:100A2000BC0083FDD9CF85EC8093BC000E940603F7
:100A30006B017C0180910F05823009F445C08091E3
:100A40000E058F3F61F180910E05803241F180915A
:100A50000E0525C08091C2049091C304A091C404E6
:100A6000B091C504892B8A2B8B2B09F48ACF0E9465
:100A700006030091C2041091C3042091C404309174
:100A8000C5046C197D098E099F09061717072807E9
:100A9000390708F076CF8091C1040E94B402109209
:100AA000C0041092BF0410929C04DF91CF911F915B
:100AB0000F91FF90EF90DF90CF9008959D919193CB
:100AC0008F5F75CF85EEB0CF8091C2049091C30443
:100AD000A091C404B091C504892B8A2B8B2B09F4F7
:100AE000A9CF0E9406030091C2041091C304209173
:100AF000C4043091C5046C197D098E099F0906173D
:100B000017072807390708F095CFC5CF089590E05B
:100B100080E00895CF93DF93D82FC8E06D2F661F34
:100B20006627661F82E00E946802DD0F61E083E0B5
:100B30000E94680260E083E00E946802C15071F781
:100B4000DF91CF910895CF93DF9360E084E00E941E
:100B50006802C1E4D4E08A810E948A0589810E94EA
:100B60008A0588810E948A0561E084E0DF91CF9147
:100B70000C9468020F931F93CF938C01C62F0E9491
:100B80009F046C2F6460C8010E949F046C2F6B7FD0
:100B9000C8010E949F0483EC90E00197F1F7CF9188
:100BA0001F910F9108950F931F93CF93DF938C01A3
:100BB000D62FC42F607F642B0E94BA0580E1D89F96
:100BC000B00111246C2BC801DF91CF911F910F91BF
:100BD0000C94BA05CF93DF93CDB7DEB728970FB645
:100BE000F894DEBF0FBECDBF98E0E5E3F2E0DE0192
:100BF000119601900D929A95E1F79091FE05981744
:100C000008F48FEF90E0880F991F21E030E02C0F5F
:100C10003D1F820F931FFC016081606840E086EFFA
:100C200095E028960FB6F894DEBF0FBECDBFDF91DA
:100C3000CF910C94D30540E061E086EF95E00E94EF
:100C4000D3058BE39FE10197F1F78091FF0588239E
:100C500019F080E00C94EA05089541E00E94D30564
:100C600081E090E0089585ED8093BC008091C204FE
:100C70009091C304A091C404B091C5040796A11D2E
:100C8000B11D23E0B695A795979587952A95D1F73D
:100C90002091BC0024FD03C010920F0508954091DF
:100CA000C2045091C3046091C4047091C504452BE3
:100CB000462B472B69F30097A105B10541F02AE2C5
:100CC0002A95F1F700C00197A109B109E1CF809100
:100CD000C1040C94B402FB0101900020E9F73197A4
:100CE000AF01461B570BDC01ED91FC910280F381B3
:100CF000E02D09948F929F92AF92BF920F931F9312
:100D0000CF93DF93CDB7DEB7A1970FB6F894DEBFD0
:100D10000FBECDBF19A2423008F44AE08E010F5D2C
:100D20001F4F842E912CB12CA12CA50194010E945F
:100D30007A0EE62FB901CA01EA3004F5E05DD80168
:100D4000EE938D01232B242B252B79F790E080E067
:100D5000109729F0BD0181E495E00E946B06A196F1
:100D60000FB6F894DEBF0FBECDBFDF91CF911F91BC
:100D70000F91BF90AF909F908F900895E95CDFCF67
:100D8000CF92DF92EF92FF92CF93DF936C01990F96
:100D9000EE08FF08F7FE19C06DE281E495E00E94BD
:100DA0000104EC0166277727CB016C197D098E09B8
:100DB0009F094AE00E947A068C0F9D1FDF91CF9118
:100DC000FF90EF90DF90CF9008954AE0C701B60101
:100DD000DF91CF91FF90EF90DF90CF900C947A0647
:100DE000CF93DF93BC0181E495E00E946B06EC0198
:100DF00063E772E081E495E00E946B068C0F9D1F13
:100E0000DF91CF9108950C946B061F920F920FB64D
:100E10000F9211240BB60F922F933F934F935F9332
:100E20006F937F938F939F93AF93BF93EF93FF93B2
:100E30008091B900887F803609F44DC008F040C029
:100E4000883209F4A9C028F5803109F49DC0C8F49E
:100E5000882309F4FBC0883009F496C0FF91EF9114
:100E6000BF91AF919F918F917F916F915F914F91C2
:100E70003F912F910F900BBE0F900FBE0F901F90C0
:100E80001895883109F488C0803241F780930E05A7
:100E900014C0803409F49DC040F48033B9F3883322
:100EA000E9F680930E0585ECB0C0803509F485C065
:100EB000883509F496C0883489F60E943306CECF6F
:100EC000883909F48CC038F5883729F050F4883611
:100ED00011F0803719F683E080930F0510920D050D
:100EE00057C0883809F47BC0803919F0803809F080
:100EF000B5CF80910D05803208F071C0E0910D05ED
:100F000081E08E0F80930D058091BB00F0E0E351EE
:100F1000FB4F80833DC0803B39F0E0F4803A09F418
:100F200079C0883A09F09ACF84E080930F05109237
:100F3000EA041092E904E091E704F091E8040995CD
:100F40008091E90481110FC081E08093E90410923F
:100F5000C70409C0803C09F4A6CF883C09F4A3CF9C
:100F6000883B09F07BCFE091EA0481E08E0F80930B
:100F7000EA04F0E0E953FB4F80818093BB0090913D
:100F8000EA048091E90429C0809134058093BB0074
:100F900085EC8093BC0062CF90913305809132053F
:100FA000981758F5E091330581E08E0F8093330553
:100FB000F0E0EE5EFA4F8081E9CFE091330581E009
:100FC0008E0F809333058091BB00F0E0EE5EFA4F08
:100FD000808390913305809132059817C8F285E897
:100FE000D8CFE091330581E08E0F80933305809157
:100FF000BB00F0E0EE5EFA4F808380911105811115
:101000005CCF81E08093100584EA8093BC0010924D
:101010000F0524CF85EC8093BC0010920F058091C2
:101020000D05803230F4E0910D05F0E0E351FB4F07
:10103000108260910D0570E0E091EB04F091EC04FA
:101040008DEE94E0099510920D0508CF10920E05D3
:1010500034CF1F920F920FB60F9211242F933F930C
:101060008F939F93AF93BF93809174049091750475
:10107000A0917604B09177043091730423E0230F9C
:101080002D3758F50196A11DB11D2093730480934F
:10109000740490937504A0937604B09377048091C0
:1010A000780490917904A0917A04B0917B04019620
:1010B000A11DB11D8093780490937904A0937A04C4
:1010C000B0937B04BF91AF919F918F913F912F91EE
:1010D0000F900FBE0F901F90189526E8230F0296D1
:1010E000A11DB11DD2CF1F920F920FB60F921124E6
:1010F0000BB60F922F933F934F935F936F937F9312
:101100008F939F93AF93BF93EF93FF9381E495E009
:101110000E94DF03FF91EF91BF91AF919F918F915B
:101120007F916F915F914F913F912F910F900BBEE7
:101130000F900FBE0F901F9018951F920F920FB631
:101140000F9211240BB60F922F938F939F93EF93CF
:10115000FF93E0915105F09152058081E091570590
:10116000F091580582FD1DC0908180915A058F5FD6
:101170008F7320915B05821741F0E0915A05F0E0F2
:10118000EF5BFA4F958F80935A05FF91EF919F91F6
:101190008F912F910F900BBE0F900FBE0F901F904D
:1011A00018958081F2CFEF92FF920F931F93CF9308
:1011B000DF93EC017B01198218821B821A821D8247
:1011C0001C82FB0101900020E9F731978F01061B7B
:1011D000170BB8016F5F7F4F90E080E00E94011015
:1011E0000097B9F0998388831B830A832C813D8102
:1011F000232B11F4FC0110821D830C83B70188811D
:101200009981DF91CF911F910F91FF90EF900C94F6
:10121000EB1088819981009711F00E94780F198254
:1012200018821D821C821B821A82DF91CF911F912E
:101230000F91FF90EF900895E5E3F5E0138212829D
:1012400088EE93E0A0E0B0E084839583A683B78323
:1012500027E432E031832083E1E4F5E01382128257
:1012600084839583A683B78389E592E09183808305
:1012700085EC90E09587848784EC90E0978786875B
:1012800080EC90E0918B808B81EC90E0938B828B53
:1012900082EC90E0958B848B86EC90E0978B868B2C
:1012A000118E128E138E148EE6EFF5E013821282E9
:1012B0008BE692E091838083118687E2848380E1CC
:1012C000828782E08387148666E772E08EED95E080
:1012D0000E94D3086EE772E084EE95E00E94D30886
:1012E00064E872E08AEE95E00E94D3086AE872E052
:1012F00080EF95E00C94D308CF93DF93CDB7DEB7A2
:101300002A970FB6F894DEBF0FBECDBF789484B590
:10131000826084BD84B5816084BD85B5826085BDF1
:1013200085B5816085BD80916E00816080936E007F
:101330001092810080918100826080938100809171
:101340008100816080938100809180008160809322
:1013500080008091B10084608093B1008091B000E2
:1013600081608093B00080919100826080939100B1
:1013700080919100816080939100809190008160C4
:10138000809390008091A10082608093A100809161
:10139000A10081608093A1008091A0008160809372
:1013A000A000809121018260809321018091210120
:1013B00081608093210180912001816080932001D0
:1013C00080917A00846080937A0080917A008260B4
:1013D00080937A0080917A00816080937A00809176
:1013E0007A00806880937A001092C100E0915105E4
:1013F000F091520582E08083E0914D05F0914E0519
:101400001082E0914F05F09150058FEC808310928F
:101410005905E0915505F091560586E08083E091ED
:101420005305F0915405808180618083E0915305DC
:10143000F0915405808188608083E0915305F0919C
:101440005405808180688083E0915305F0915405B4
:1014500080818F7D808361E082E00E94D50261E01F
:1014600083E00E94D50261E084E00E94D50262E040
:1014700083E30E94D50261E082E30E94D5021092CC
:10148000410410924204109243040E94A3058091EB
:101490007B00877F80937B0080E480937C00809139
:1014A0007A00806480937A0080917A0086FDFCCF78
:1014B0006091780070917900072E000C880B990BD1
:1014C000611571058105910511F00E943F0E109282
:1014D000BE041092BD041092C0041092BF040E947A
:1014E000960287E591E09093E8048093E70488E50D
:1014F00091E09093EC048093EB041092FB058091B3
:101500000106823018F098E09093FB058093FE0569
:1015100062E370E080E090E00E942B03609102069D
:1015200086EF95E00E949F0468EE73E080E090E013
:101530000E942B0360E386EF95E00E94BA058BE4DE
:1015400096E40197F1F760E386EF95E00E94BA0513
:101550002BE436E4C9010197F1F760E386EF95E0EB
:101560000E94BA0583E592E00197F1F760E286EF09
:1015700095E00E94BA056091FB05606240E086EF4D
:1015800095E00E94D30584E08093FC0540E06CE088
:1015900086EF95E00E94D3050E941B0682E08093AF
:1015A000FD0540E066E086EF95E00E94D30540E04F
:1015B00062E086EF95E00E94D3058BE39FE10197FF
:1015C000F1F788E08093020660E086EF95E00E94E4
:1015D0009F0480E00E94EA0561E972E086EF95E0F1
:1015E0000E94030781E00E94EA0561EA72E086EF4B
:1015F00095E00E94030764E670E080E090E00E94BE
:101600002B030E94440221E0892B09F420E020935F
:101610002A0260ED77E080E090E00E942B030E94B8
:101620001B0681E00E94EA0561EB72E086EF95E01F
:101630000E94030781E992E00E94F0068BEB92E0A2
:101640000E94F00687EE92E00E94F0060E9444029B
:10165000A1E0A983009709F4198220912A0222238C
:1016600079F0892B69F462E370E080E090E00E94F9
:101670002B030E944402892B19F481E080937204A9
:10168000B981B0932A0281E495E00E94C90318163B
:1016900019063CF481E495E00E94A70381E0809361
:1016A000720480917204882309F48EC0109272042F
:1016B00086E193E00E94F0060E941B0680E00E94F3
:1016C000EA0565E373E086EF95E00E94030761E0B9
:1016D00082E30E946802E4E4F4E0FA83E9837CE6B2
:1016E000A72E74E0B72EECE5CE2EE4E0DE2EFCE46F
:1016F000EF2EF4E0FF2E0EED15E0ACE48A2EA4E010
:101700009A2EA981BA811D921D92BA83A983F501EF
:1017100011925F012FB7F894809174049091750431
:10172000A0917604B09177042FBFF6018193919335
:10173000A193B1936F010E94F00D28EE33E040E0D9
:1017400050E00E94480E68537F4F8F4F9F4FD70144
:101750006D937D938D939D937D01B80181E495E018
:101760000E945D036CE373E081E495E00E9403074F
:10177000F701349760817181828193814AE00E94F0
:101780007A068EE493E00E94F0060A5F1F4FE9811B
:10179000FA818E169F0609F0B4CF10924104109280
:1017A0004204109243040E94A30581E080937104D7
:1017B000109270048FEF9FEF90931F0280931E0290
:1017C00081E593E00E94F00680917104882309F47A
:1017D00039C180917004811135C18FB7F89420917F
:1017E00074043091750440917604509177042B83F2
:1017F0003C834D835E838FBF4CE654E058874F8314
:101800006CE5262E64E0362E0CE414E084E494E0CB
:101810009A8789875A834983912C812CE981FA819F
:101820008191FA83E98381119BC0F10180819181CB
:10183000A281B3814B815C816D817E81481B590BF4
:101840006A0B7B0BF80180819181A281B3814817DB
:1018500059076A077B0708F483C02B813C814D81BF
:101860005E81D1012D933D934D935C931397C401F9
:101870000197039708F0E9C0F401EE0FFF1FE55C44
:10188000FD4F80819181A985BA85ED91FC91EE0F84
:10189000FF1FE80FF91F80819181FC0197FD3796AA
:1018A00023E0F595E7952A95E1F7EF5BFB4F68E0BC
:1018B00070E00E94AB0E21E030E002C0220F331F27
:1018C0008A95E2F7C9019081892B80830E94A30544
:1018D00036E0389DC001399D900D1124AC01425273
:1018E0005A4F5A01BA0181E495E00E945D0362E714
:1018F00073E081E495E00E940307A985BA858D9184
:101900009C9101960E94C00668E773E081E495E02F
:101910000E94030785E090E00E94C0068AE793E0FA
:101920000E94F006E985FA85808191810196918374
:10193000808305970CF48CC0E981FA81319721E00E
:1019400020836EE773E081E495E00E940307B50110
:1019500081E495E00E945D0383E893E00E94F00635
:10196000FFEF8F1A9F0A24E0220E311C0C5F1F4FDD
:1019700049855A854E5F5F4F5A87498754E08516DF
:10198000910409F04BCF8091700481115BC080916C
:101990001E0290911F021A821982AF81B8852D9183
:1019A000B887AF83E981FA81222309F4B4C08F3F5D
:1019B000980709F0B0C0F0931F02E0931E0281E087
:1019C0008093700460E082E30E9468020E941B061C
:1019D00080E00E94EA056CEA73E086EF95E00E94E1
:1019E000030781E00E94EA0526E049815A81249F8D
:1019F000C001259F900D1124DC01A252BA4FBA8379
:101A0000A983BD0186EF95E00E945D0385EB93E01D
:101A10000E94F0066FEC73E081E495E00E940307FA
:101A200069817A8181E495E00E945D0388ED93E00D
:101A30000E94F00680EE93E00E94F00680E194E0C0
:101A40000E94F0060E946E0401CE80E292E01BCF5D
:101A5000D801CD90DC90B8E2BC9DC001BD9D900D39
:101A6000112464E670E00E94AB0EC601860F971F3A
:101A7000813BE4E09E0714F080EB94E0883C910504
:101A800014F488EC90E02C01990F66087708C601E1
:101A9000861B970B813BF4E09F0714F080EB94E0EA
:101AA000883C910514F488EC90E06C01990FEE08E5
:101AB000FF08C414D504E604F7048CF44C185D0840
:101AC0006E087F0841F00E94F00DA30192010E9470
:101AD000480E2B013C01C40CD51CE61CF71CD80198
:101AE000CD92DD92ED92FC921397B50181E495E0E1
:101AF0000E945D0368E973E081E495E00E940307BA
:101B0000F80160817181828193814AE00E947A06A6
:101B10008EE493E023CF3196FA83E983349709F07A
:101B20003CCF90CFCF93DF93C6EFD5E02697888147
:101B30009981009711F00E94780F85E0CE3DD8077B
:101B4000A9F7DF91CF9108958F929F92AF92BF92A4
:101B5000CF92DF92EF92FF92CF93DF93EC016881F7
:101B600079818A819B81611571058105910521F437
:101B700064E279ED8BE597E02DE133EF41E050E051
:101B80000E94480E49015A019B01AC01A7EAB1E449
:101B90000E94670E6B017C01ACEEB4EFA5019401CD
:101BA0000E94750EC60ED71EE81EF91EF7FE06C06F
:101BB00081E0C81AD108E10880E8F80AC882D98211
:101BC000EA82FB82C701B6019F77DF91CF91FF9038
:101BD000EF90DF90CF90BF90AF909F908F9008953F
:101BE0008F929F92AF92BF92CF92DF92EF92FF922D
:101BF00060912B0270912C0280912D0290912E0207
:101C0000611571058105910521F464E279ED8BE59B
:101C100097E02DE133EF41E050E00E94480E49018A
:101C20005A019B01AC01A7EAB1E40E94670E6B0167
:101C30007C01ACEEB4EFA50194010E94750EC60EB6
:101C4000D71EE81EF91EF7FE06C081E0C81AD108AB
:101C5000E10880E8F80AC0922B02D0922C02E092B0
:101C60002D02F0922E02C701B6019F77FF90EF90F0
:101C7000DF90CF90BF90AF909F908F90089560932A
:101C80002B0270932C0280932D0290932E020895C4
:101C9000052E97FB1EF400940E945F0E57FD07D09F
:101CA0000E947A0E07FC03D04EF40C945F0E509500
:101CB0004095309521953F4F4F4F5F4F0895909538
:101CC0008095709561957F4F8F4F9F4F08950E942B
:101CD0009C0EA59F900DB49F900DA49F800D911D0B
:101CE00011240895B7FF0C94670E0E94670E821BA3
:101CF000930B0895A1E21A2EAA1BBB1BFD010DC078
:101D0000AA1FBB1FEE1FFF1FA217B307E407F507AB
:101D100020F0A21BB30BE40BF50B661F771F881F87
:101D2000991F1A9469F760957095809590959B011D
:101D3000AC01BD01CF010895A29FB001B39FC001C6
:101D4000A39F700D811D1124911DB29F700D811DE7
:101D50001124911D089597FB072E16F4009407D0C7
:101D600077FD09D00E94C80E07FC05D03EF490957F
:101D700081959F4F0895709561957F4F0895EE0F5F
:101D8000FF1F0024001C0BBE0790F691E02D099464
:101D9000AA1BBB1B51E107C0AA1FBB1FA617B70791
:101DA00010F0A61BB70B881F991F5A95A9F78095AD
:101DB0009095BC01CD0108950F931F93CF93DF93AE
:101DC0008230910510F482E090E0E0910506F091F8
:101DD000060630E020E0B0E0A0E0309799F421154D
:101DE000310509F44AC0281B390B24303105D8F5D8
:101DF0008A819B816115710589F1FB01938382833F
:101E0000FE0111C040815181028113814817590799
:101E1000E0F04817590799F4109761F012960C9367
:101E2000129713961C933296CF01DF91CF911F9199
:101E30000F9108950093050610930606F4CF21151F
:101E4000310551F04217530738F0A901DB019A011F
:101E5000BD01DF01F801C1CFEF01F9CF9093060674
:101E600080930506CDCFFE01E20FF31F819391937E
:101E70002250310939832883D7CF2091030630912E
:101E80000406232B41F42091310230913202309329
:101E900004062093030620912F0230913002211571
:101EA000310541F42DB73EB74091330250913402D1
:101EB000241B350BE0910306F0910406E217F307AB
:101EC000A0F42E1B3F0B2817390778F0AC014E5FAA
:101ED0005F4F2417350748F04E0F5F1F50930406DD
:101EE00040930306819391939FCFF0E0E0E09CCF75
:101EF000CF93DF930097E9F0FC01329713821282AF
:101F0000A0910506B0910606ED0130E020E01097A3
:101F1000A1F420813181820F931F2091030630911B
:101F200004062817390709F061C0F0930406E0930E
:101F30000306DF91CF910895EA01CE17DF07E8F598
:101F40004A815B819E0141155105B1F7E901FB838F
:101F5000EA8349915991C40FD51FEC17FD0761F42D
:101F6000808191810296840F951FE901998388836E
:101F7000828193819B838A83F0E0E0E012968D91C9
:101F80009C9113970097B9F52D913C911197CD0134
:101F90000296820F931F20910306309104062817A2
:101FA000390739F6309751F510920606109205065A
:101FB000B0930406A0930306BCCFD383C2834081B1
:101FC0005181840F951FC817D90761F44E5F5F4F89
:101FD00088819981480F591F518340838A819B8151
:101FE000938382832115310509F0B0CFF093060663
:101FF000E09305069ECFFD01DC01C0CF1382128263
:10200000D7CF4F925F926F927F928F929F92AF92B3
:10201000BF92CF92DF92EF92FF920F931F93CF93D5
:10202000DF938C01009799F4CB01DF91CF911F9141
:102030000F91FF90EF90DF90CF90BF90AF909F9067
:102040008F907F906F905F904F900C94DC0EFC010E
:10205000E60FF71F9C0122503109E217F30708F43D
:10206000AEC0D901CD91DC911197C617D70720F1E9
:10207000C530D10578F0CE0104978617970750F048
:10208000C61BD70B2297C193D1936D937C93CF013D
:102090000E94780FC801DF91CF911F910F91FF909F
:1020A000EF90DF90CF90BF90AF909F908F907F90F8
:1020B0006F905F904F9008955B01AC1ABD0A4C0180
:1020C0008C0E9D1EA0910506B0910606512C412C48
:1020D000F12CE12C109731F58091030690910406C4
:1020E0008815990509F05CC04616570608F058C0D7
:1020F00080912F0290913002009741F48DB79EB7E6
:102100004091330250913402841B950BE817F90774
:1021100008F055C0F0930406E0930306F9017183BB
:102120006083B8CF8D919C91119712966C90129705
:1021300013967C901397A815B90559F56C0142E0E8
:10214000C40ED11CCA14DB0420F1AC014A195B098E
:10215000DA011296159780F0628273825183408370
:10216000D9016D937C93E114F10471F0D7011396BA
:10217000FC93EE9312978ECF22968C0F9D1FF90140
:1021800091838083F301EFCFF0930606E093050679
:1021900081CF4816590608F42C017D01D3019ACF4E
:1021A000CB010E94DC0E7C01009749F0AE01B80122
:1021B0000E94E210C8010E94780F87016BCF10E0E7
:1021C00000E068CFFB01DC0102C001900D9241509C
:1021D0005040D8F70895FB01DC0101900D920020DA
:1021E000E1F7089511E0C3E0D1E004C0FE010E94D0
:0E21F000BF0E2196C430D107C9F7F894FFCF77
:1021FE000F0010001100120013000A000B000C005B
:10220E000D000E0005000600070008000900FFFF84
:10221E0000000100020003000400010100000000A4
:10222E000007068000000040001400540014020A4B
:10223E0002000200000000B0018301870559017CF5
:10224E000169015A010000000001046B0398034E5E
:10225E0004C903A703BB03000000002D066B038710
:10226E000586050D0A0043455256454E41004D4F19
:10227E00445241005A4C555441005A454C454E412A
:10228E0000446F737469687920612073617A6B7989
:10229E000054726F6368752067616D6261207864A7
:1022AE000050524950524156454E0050726573735C
:1022BE002074686520627574746F6E206F6E207066
:1022CE00696E20353120746F2073746172742061D1
:1022DE002072616365210028596F752063616E203D
:1022EE00616C736F20707265737320616E79206BF1
:1022FE00657920696E2053657269616C204D6F6E31
:10230E0069746F7229000A3D3D3D20535441525469
:10231E00494E47204E4557204C4544205241434597
:10232E00203D3D3D005354415254210020737461B1
:10233E007274696E672064656C61793A20006D7302
:10234E000052616365207374617274656421205755
:10235E006174636820746865204C4544732E2E2E7C
:10236E000A00204C454420002F00204F4E003E3ED8
:10237E003E200020415252415920434F4D504C4572
:10238E00544521203C3C3C002073706565642063FD
:10239E0068616E67656420746F3A2000565948452F
:1023AE005243453A000AF09F8F8620524143452002
:1023BE0046494E49534845442120F09F8F86005789
:1023CE00494E4E45523A2000204152524159210069
:1023DE0050726573732074686520627574746F6EC5
:1023EE00206F6E2070696E20353120746F207374EB
:1023FE006172742061206E657720726163652100C1
:10240E0028596F752063616E20616C736F20707236
:10241E0065737320616E79206B657920696E205328
:10242E00657269616C204D6F6E69746F72290A0056
:00000001FF
